:020000040000fa
:080000000002040000000000f2
:020000040000fa
:040008008803000069
:020000040000fa
:04000c0006030000e7
:020000040000fa
:0400100048030000a1
:020000040000fa
:0400140026030000bf
:020000040000fa
:040018006803000079
:020000040000fa
:04001c008803000055
:020000040000fa
:040020008803000051
:020000040000fa
:04002400880300004d
:020000040000fa
:040028008803000049
:020000040000fa
:04002c008803000045
:020000040000fa
:040030008803000041
:020000040000fa
:04003400cc020000fa
:020000040000fa
:040038008803000039
:020000040000fa
:04003c008803000035
:020000040000fa
:040040008803000031
:020000040000fa
:04004400880300002d
:020000040000fa
:040048008803000029
:020000040000fa
:04004c008803000025
:020000040000fa
:040050008803000021
:020000040000fa
:04005400880300001d
:020000040000fa
:040058008803000019
:020000040000fa
:04005c008803000015
:020000040000fa
:040060008803000011
:020000040000fa
:04006400880300000d
:020000040000fa
:040068008803000009
:020000040000fa
:04006c008803000005
:020000040000fa
:040070008803000001
:020000040000fa
:0400740088030000fd
:020000040000fa
:0400780088030000f9
:020000040000fa
:04007c0088030000f5
:020000040000fa
:0400800088030000f1
:020000040000fa
:0400840088030000ed
:020000040000fa
:0400880088030000e9
:020000040000fa
:04008c0088030000e5
:020000040000fa
:0400900088030000e1
:020000040000fa
:0400940088030000dd
:020000040000fa
:0400980088030000d9
:020000040000fa
:04009c0088030000d5
:020000040000fa
:0400a00088030000d1
:020000040000fa
:0400a40088030000cd
:020000040000fa
:0400a80088030000c9
:020000040000fa
:0400ac0088030000c5
:020000040000fa
:0400b00088030000c1
:020000040000fa
:0400b40088030000bd
:020000040000fa
:0400b80088030000b9
:020000040000fa
:0400bc0088030000b5
:020000040000fa
:0400c00088030000b1
:020000040000fa
:0400c40088030000ad
:020000040000fa
:0400c80088030000a9
:020000040000fa
:0400cc0088030000a5
:020000040000fa
:0400d00088030000a1
:020000040000fa
:0400d400880300009d
:020000040000fa
:0400d8008803000099
:020000040000fa
:0400dc008803000095
:020000040000fa
:0400e0008803000091
:020000040000fa
:0400e400880300008d
:020000040000fa
:0400e8008803000089
:020000040000fa
:0400ec008803000085
:020000040000fa
:0400f0008803000081
:020000040000fa
:0400f400880300007d
:020000040000fa
:0400f8008803000079
:020000040000fa
:0400fc008803000075
:020000040000fa
:040100008803000070
:020000040000fa
:04010400880300006c
:020000040000fa
:040108008803000068
:020000040000fa
:04010c008803000064
:020000040000fa
:040110008803000060
:020000040000fa
:04011400880300005c
:020000040000fa
:040118008803000058
:020000040000fa
:04011c008803000054
:020000040000fa
:040120008803000050
:020000040000fa
:04012400880300004c
:020000040000fa
:040128008803000048
:020000040000fa
:04012c008803000044
:020000040000fa
:040130008803000040
:020000040000fa
:04013400880300003c
:020000040000fa
:040138008803000038
:020000040000fa
:04013c008803000034
:020000040000fa
:040140008803000030
:020000040000fa
:04014400880300002c
:020000040000fa
:040148008803000028
:020000040000fa
:040208008803000067
:020000040000fa
:04020c0006030000e5
:020000040000fa
:04021000480300009f
:020000040000fa
:0402140026030000bd
:020000040000fa
:040218006803000077
:020000040000fa
:04021c008803000053
:020000040000fa
:04022000880300004f
:020000040000fa
:04022400880300004b
:020000040000fa
:040228008803000047
:020000040000fa
:04022c008803000043
:020000040000fa
:04023000880300003f
:020000040000fa
:04023400cc020000f8
:020000040000fa
:040238008803000037
:020000040000fa
:04023c008803000033
:020000040000fa
:04024000880300002f
:020000040000fa
:04024400880300002b
:020000040000fa
:040248008803000027
:020000040000fa
:04024c008803000023
:020000040000fa
:04025000880300001f
:020000040000fa
:04025400880300001b
:020000040000fa
:040258008803000017
:020000040000fa
:04025c008803000013
:020000040000fa
:04026000880300000f
:020000040000fa
:04026400880300000b
:020000040000fa
:040268008803000007
:020000040000fa
:04026c008803000003
:020000040000fa
:0402700088030000ff
:020000040000fa
:0402740088030000fb
:020000040000fa
:0402780088030000f7
:020000040000fa
:04027c0088030000f3
:020000040000fa
:0402800088030000ef
:020000040000fa
:0402840088030000eb
:020000040000fa
:0402880088030000e7
:020000040000fa
:04028c0088030000e3
:020000040000fa
:0402900088030000df
:020000040000fa
:0402940088030000db
:020000040000fa
:0402980088030000d7
:020000040000fa
:04029c0088030000d3
:020000040000fa
:0402a00088030000cf
:020000040000fa
:0402a40088030000cb
:020000040000fa
:0402a80088030000c7
:020000040000fa
:0402ac0088030000c3
:020000040000fa
:0402b00088030000bf
:020000040000fa
:0402b40088030000bb
:020000040000fa
:0402b80088030000b7
:020000040000fa
:0402bc0088030000b3
:020000040000fa
:0402c00088030000af
:020000040000fa
:0402c40088030000ab
:020000040000fa
:0402c80088030000a7
:020000040000fa
:0402cc0088030000a3
:020000040000fa
:0402d000880300009f
:020000040000fa
:0402d400880300009b
:020000040000fa
:0402d8008803000097
:020000040000fa
:0402dc008803000093
:020000040000fa
:0402e000880300008f
:020000040000fa
:0402e400880300008b
:020000040000fa
:0402e8008803000087
:020000040000fa
:0402ec008803000083
:020000040000fa
:0402f000880300007f
:020000040000fa
:0402f400880300007b
:020000040000fa
:0402f8008803000077
:020000040000fa
:0402fc008803000073
:020000040000fa
:04030000880300006e
:020000040000fa
:04030400880300006a
:020000040000fa
:040308008803000066
:020000040000fa
:04030c008803000062
:020000040000fa
:04031000880300005e
:020000040000fa
:04031400880300005a
:020000040000fa
:040318008803000056
:020000040000fa
:04031c008803000052
:020000040000fa
:04032000880300004e
:020000040000fa
:04032400880300004a
:020000040000fa
:040328008803000046
:020000040000fa
:04032c008803000042
:020000040000fa
:04033000880300003e
:020000040000fa
:04033400880300003a
:020000040000fa
:040338008803000036
:020000040000fa
:04033c008803000032
:020000040000fa
:04034000880300002e
:020000040000fa
:04034400880300002a
:020000040000fa
:040348008803000026
:020000040000fa
:10040000af8c20000e7f22000e018800000000004b
:10041000000020000000e000020032000001200087
:100420002002880014000700cf0007000000e00051
:1004300003003a00e005210001002000020037001f
:100440000000200001002000810f70000100320038
:1004500014000700000020000000e000020032004d
:100460000000020000000000201102000000000057
:100470000040da000000fe004440a9000000200017
:100480000000e0000300320000002000a00188000e
:100490004440a800000006008a1f78008b1f7800e7
:1004a0000000060091018800800478000000eb0045
:1004b0001a003700e284440032a0b4009905ba0063
:1004c000e284440032a0b4009906ba00e2844400f9
:1004d00032a0b4000006eb00476fde00fd07b2005b
:1004e000636ce10003003a00ebff07000000eb0043
:1004f0000a003700606ce10004003a00005deb0088
:100500008b05e900fdff3e00040037006168e10053
:10051000010032000086eb000b00070019c7ba008b
:100520001905ba000e04e00003003a000a00e000da
:10053000e0ff3a0000000600fe07b2009e018800be
:100540008a047800f5ff3700395dba008b05e900b1
:100550000c003200295dba008b05e900080032006a
:100560000c00e00003003a00e284440032a0b40032
:10057000f5ff370019ddba008b05e900faff3a00f4
:100580008904e800e184440032a0b40000000600c1
:1005900000000000000000003600f800809fbe0050
:1005a000829fbe00849fbe00869fbe000000fa00ae
:1005b000060207008e030700704280000000e00082
:1005c000020032007042800000000100708c2000a8
:1005d000104078008040e800708c200001487800ce
:1005e000608c200011c0b300014878008460a9002d
:1005f0000080fa004f03be004f02be004f01be0054
:100600004f00be003600f900004006003600f8003a
:10061000809fbe00829fbe00849fbe00869fbe005a
:100620000000fa008020a9000000eb00f00607009f
:100630000080fa004f03be004f02be004f01be0013
:100640004f00be003600f900004006003600f800fa
:10065000809fbe00829fbe00849fbe00869fbe001a
:100660000000fa00e70607008040a9001000200003
:10067000df0607000080fa004f03be004f02be00f5
:100680004f01be004f00be003600f90000400600da
:100690003600f800809fbe00829fbe00849fbe008f
:1006a000869fbe000000fa008060a90020002000a4
:1006b000cf0607000080fa004f03be004f02be00c5
:1006c0004f01be004f00be003600f900004006009a
:1006d0003600f800809fbe00829fbe00849fbe004f
:1006e000869fbe000000fa008080a9003000200034
:1006f000bf0607000080fa004f03be004f02be0095
:100700004f01be004f00be003600f9000040060059
:100710000040da000000fe000800fa001007980010
:100720002107980032079800be009000010f780062
:10073000070037002e00900010407800ae009000b7
:100740008100e80021079800240407001e0fe9003b
:100750001e0078000000e000f6ff3a003e00900026
:100760000080fa00000006000000050003f0a2006f
:10077000889fbe008a9fbe008c1f7800fd00070086
:10078000040133006450e1004f0032006420e100b6
:100790005200320003826c0007003b000905d000c4
:1007a0000306d000820f54000c065d0002003900e1
:1007b0000200320089017800030678008582550026
:1007c00004003d000003fd008103fd008502ea00f6
:1007d0008b854200840f720002003b006000100015
:1007e000e08018006011b8000005eb007a28e100f5
:1007f0000a00390006007800c75ddd00f707b20087
:10080000878075002d003700828171000a01780011
:10081000610560008180d1000080d3008502e9007d
:10082000f9ff3b00060440008784480002003b00bb
:1008300060041400e0841c000988a3000700320053
:100840008a81710082817100610164008904d10094
:100850000884d3008b05e800170037000978a3004f
:1008600013003a000b00e000130034008b05e90090
:100870000804440089844c000a4474000978a300e9
:100880000d003a000b00e000070034008b05e90082
:100890000804440089844c0001003a000b00200049
:1008a0000978a300f7ff32000001eb0002003700d7
:1008b000828171000a017800730007000cf0a70024
:1008c00001f0a000bc0037006420e10002003a0003
:1008d000838f6c00bc0033000801be000200be0024
:1008e000b5003700889fbe008a9fbe008c1f78002d
:1008f000a0000700a700330003866c006450e100ed
:100900002e0032006420e100330032006150e1002b
:100910002f0032006120e100310032008585550052
:10092000eb07b00009002000080420000500370094
:100930000804440089844c000a0031000603430087
:1009400087834b000001530081815b00f8ff330077
:100950000203be000800a0000804440089844c0083
:10096000f6ff3900c639dd00830173000100320053
:10097000130020008904d1000884d3000998a30043
:10098000050032000800a7000300a0008904d10080
:100990000884d3008b05e8008904d1000884d300c3
:1009a0000001eb000281d2003700070001f0a10036
:1009b0000cf0a70001f0a0007f0037006420e100e8
:1009c000810032000801be000200be00f7ff3700c0
:1009d0006120e1007c0032006000b800f3ff3700c6
:1009e0000000200001f82700f0ff3700140020006d
:1009f000ac003700f4ff2f00aa0037000001be0052
:100a0000470007000470a70003f0a1006509b100ca
:100a1000160032000d0035006828e10006003500a0
:100a2000f0ff2f00f1ff27000300e00013003b0060
:100a300001002800000005000000400081804800ff
:100a40008502e900fcff3a0008003700f88f4200f9
:100a500002003c008000eb00000005008100d10096
:100a60000080d3008502e800fcff3a000300e000ac
:100a700002003b0060001000e0801800000006004b
:100a80006011b800a200370081002000618055008d
:100a90000b003d000b00200061fe2f000100e10073
:100aa0001d00340082817100610164008904d1005d
:100ab0000884d3000000e800faff3a00710020002b
:100ac0006100640003007000020060000900320051
:100ad00061044400e0844c000988a5000500320050
:100ae0008b05e8006808e10002003a008904d100a3
:100af0000884d300f20f20000258e10005003d00f9
:100b0000c75ddd00f907b200898075000800780034
:100b1000000006000bf827008b007800000005009d
:100b2000c70ade00f107b200f50fb200080032007c
:100b3000e1cf4200020032000170a0002400050055
:100b4000810f700001003200040805004400050018
:100b5000810f700002003a00140005008502e900d0
:100b60000000400081c04800fcff3b000170a00075
:100b7000240005000004be00e9ff07000003be00da
:100b80000405be000200be00e5ff0700844f7500ab
:100b9000000006000200be006450e10005003600bf
:100ba0006420e100020036000968a30001003a0059
:100bb0000800be000160a0004f0678004f05be008f
:100bc0004f04be0000000600f0ff2f00f1ff2700d9
:100bd000f9ff3700889fbe008a9fbe008c1f7800f7
:100be000e4ff0700ebff330003866c006450e10074
:100bf000240032006420e100270032006150e1004f
:100c0000220032006120e100210032008b85420089
:100c1000eb07b1000134b800003ab8000804420004
:100c200089844a00013ab8000030b800888040004a
:100c300009014a00040033000000400081804800a0
:100c4000020149008b05e900c909dd00830170003c
:100c50000100320013002000c814de004814dd003b
:100c60004709de001200b200c808de0008847000e8
:100c700085ff070001f0a1000cf0a70001f0a00023
:100c8000cdff37006120e100cfff32000801be0038
:100c90000200be00f7ff37006150e100fcff3a00a0
:100ca000c9ff3700889fbe008a9fbe00841f78005e
:100cb000b0ff07004f00780011003300f0ff2f0055
:100cc000838f6c0006003b00040565000a00a70046
:100cd0000800370009f0a6001000200008003700c7
:100ce000820f5400838f5c00030039001000200045
:100cf00001003e000000200009f0a7000000ea000b
:100d00004f05be004f04be000000e00000000600da
:100d1000889fbe008a9fbe0000827000040271009e
:100d200004827100260032000004be000200be00f2
:100d30006011b8006b092000950220000182cf00ed
:100d40000a0039000541b1000082cf0007003900d8
:100d50000541b1000982cf00040039000541b1000e
:100d60000882cf00010039000541b1000542520060
:100d7000120032000a003b008281710061016400b0
:100d80008100d1000080d3008984d3000884d3007f
:100d90008b05e8000442e800f7ff3a00070037003f
:100da0000804440089844c00000048008180480009
:100db0008b05e9000442e900f9ff3a0032ff070021
:0c0dc0004f05be004f04be0000000600fe
:020000040000fa
:100dcc000000fa00889fbe008a1f7800001880007f
:100ddc008000eb0027ff07008208220023d82300a5
:100dec0079ff07000041880011418800101880002d
:100dfc008000eb001fff0700d220230083d42300c8
:100e0c0071ff07000001be0000002000811c2400bf
:100e1c0053fe0700a0408800b140880004418000c8
:100e2c0015418000a0408000b14080000001be0050
:100e3c000400be0064ff0700604188007141880017
:100e4c00a4408000b5408000c0408000d1408000ac
:100e5c000001be000400be0041fe0700e040880017
:100e6c00f140880004418000154180002041800041
:100e7c00314180000001be000400be0038fe0700b6
:100e8c0040418800514188006441800075418000d8
:100e9c0080418000914180000001be000400be0032
:100eac002ffe0700a0418800b1418800404180001e
:100ebc00514180006011b800c9fe07000000e0003d
:100ecc0025003a00e0408000f14080006011b8003d
:100edc00c3fe07000000e00005003a00404280001d
:100eec005142800040428800514288005c0037002b
:100efc00e0408000f140800018c0b3006011b800e1
:100f0c00b9fe07000000e00001003c000044eb00cb
:100f1c000804e0000800320040428000514280008a
:100f2c00a2702d0033c223000dfe07004042880042
:100f3c00514288004a0037004042800051428000f4
:100f4c00a2702d0033c2230006fe07004042880029
:100f5c005142880042003700e4408000f540800098
:100f6c0040418000514180000001be000400be00e1
:100f7c0059fe07000004be00a4408000b54080006c
:100f8c0000418000114180000001be000400be0041
:100f9c0051fe070001f0a2000001be000800be00d7
:100fac008ffe07000000e00005003a004042800080
:100fbc00514280004042880051428800280037008e
:100fcc00e4408000f54080004041800051418000a9
:100fdc000001be000400be003ffe07000004be007e
:100fec00a4408000b5408000004180001141800089
:100ffc000001be000400be0037fe070001f0a20095
:10100c001ac0b3000001be000800be0076fe070047
:10101c000000e00001003c000045eb000a04e00089
:10102c00080032004042800051428000a2702d0026
:10103c0033c22300cafd0700404288005142880099
:10104c00070037004042800051428000a2702d0002
:10105c0033c22300c3fd0700404288005142880080
:10106c00404280005142800018c0b300a299290070
:10107c0093f523005cfe07000000e00001003d003a
:10108c000044eb000804e00005003200a0992900a0
:10109c0091f523004042880051428800120037002d
:1010ac00404280005142800018c0b3006011b8006b
:1010bc004bfe07000000e000010034000044eb0090
:1010cc000804e000040032006000b80040428800d0
:1010dc005142880004003700404280005142800099
:1010ec0040428800514288004042800051428000ba
:1010fc0002002000f3312400b3fe07003cfe070081
:10110c0000007800000c8800004180001141800034
:10111c00204188003141880060418000714180008d
:10112c008041880091418800a0408000b14080003f
:10113c00c0408800d14088004f0578004f04be00a5
:10114c000080fa00000006000000fa00881f7800fa
:10115c00001880008000eb0046fe07008208220089
:10116c0023d8230098fe0700004188001141880015
:10117c00101880008000eb003efe0700d2202300f8
:10118c0083d4230090fe07000001be000000200065
:10119c00811c240072fd0700a0408800b14088002b
:1011ac000441800015418000a0408000b1408000c7
:1011bc000001be000400be0083fe070060418800f1
:1011cc00714188006441800075418000804180003d
:1011dc00914180000001be000400be0060fd0700cc
:1011ec00a0418800b1418800044180001541800075
:1011fc0020418000314180000001be000400be008f
:10120c0057fd07004041880051418800a0418000f3
:10121c00b141800018c0b3006011b800f2fd0700a6
:10122c000000e00001003c000044eb000804e0007a
:10123c001a003200404180005141800018c0b300b8
:10124c006011b800e8fd07000000e00001003c0060
:10125c000044eb000804e00008003200404280002b
:10126c0051428000a2702d0033c223003cfd0700c8
:10127c0040428800514288002100370040428000e3
:10128c0051428000a2702d0033c2230035fd0700af
:10129c0040428800514288001900370040418000cc
:1012ac005141800018c0b3006011b800cefd07009a
:1012bc000000e00001003c000044eb000804e000ea
:1012cc00080032004042800051428000a2702d0084
:1012dc0033c2230023fd070040428800514288009e
:1012ec00070037004042800051428000a2702d0060
:1012fc0033c223001afd0700404288005142880087
:10130c00404280005142800018c0b300a2992900cd
:10131c0093f52300b4fd07000000e00001003d0040
:10132c000044eb000804e00005003200a0992900fd
:10133c0091f523004042880051428800120037008a
:10134c00404280005142800018c0b3006011b800c8
:10135c00a3fd07000000e000010034000044eb0096
:10136c000804e000040032006000b800404288002d
:10137c0051428800040037004042800051428000f6
:10138c004042880051428800404280005142800017
:10139c0002002000f33124000bfe070094fd07002f
:1013ac0000007800000c8800004180001141800092
:1013bc0020418800314188006041800071418000eb
:1013cc008041880091418800a0408000b14080009d
:1013dc00c0408800d14088004f0478000080fa009b
:1013ec00000006000000fa00889fbe002018800054
:1013fc008000eb009ffd07008208220023d8230009
:10140c00f1fd0700604088007140880030188000b2
:10141c008000eb0097fd0700d220230083d423002b
:10142c00e9fd07000001be0000002000811c240023
:10143c00cbfc070040408800514088009040800061
:10144c000000e8009040880090408000ea0f5000b7
:10145c00c3003a001228ef00504380006143800023
:10146c007043880081438800d0428000e1428000b4
:10147c00f042880001438800b0428000c1428000e5
:10148c00d0428800e1428800c4418000d5418000f0
:10149c0060408000714080000001be000400be006e
:1014ac00affc0700b0428800c1428800b042800007
:1014bc00c1428000c2de210093b42300c2fd0700ac
:1014cc000004be00d0428000e142800062962d00f4
:1014dc0033b12300bcfd07000001be000800be00b4
:1014ec009ffc07000004be00f04280000143800016
:1014fc006011b800b4fd07000001be000800be007a
:10150c0098fc07000002be007043800081438000fd
:10151c000001be000400be0092fc0700504388008e
:10152c0061438800504380006143800018c0b300c1
:10153c00a299290093f523002bfd07000000e00081
:10154c0001003d000044eb000804e00005003200ff
:10155c00a099290091f5230050438800614388002d
:10156c0012003700504380006143800018c0b30064
:10157c006011b8001afd07000000e0000100340003
:10158c000044eb000804e000040032006000b800e6
:10159c0050438800614388000400370050438000aa
:1015ac0061438000504388006143880050438000b1
:1015bc006143800002002000f331240082fd07000b
:1015cc000bfd070000007800300c88008040800084
:1015dc000000e8008040880080408000ea0f500046
:1015ec005f003a001028ef0090448000a144800076
:1015fc00b0448800c144880010448000214480001d
:10160c003044880041448800f0438000014480004d
:10161c001044880021448800044280001542800058
:10162c0040408000514080000001be000400be001c
:10163c004bfc0700f043880001448800f043800015
:10164c0001448000327e2c0083e923005efd0700fc
:10165c000004be001044800021448000023b2000a6
:10166c0073e6230058fd07000001be000800be0011
:10167c003bfc07000004be00304480004144800065
:10168c006011b80050fd07000001be000800be004c
:10169c0034fc07000002be00b0448000c14480004e
:1016ac000001be000400be002efc07009044880020
:1016bc00a144880090448000a144800018c0b3006d
:1016cc000200200003f82300c7fc07000000e00024
:1016dc0001003d000044eb000804e000050032006e
:1016ec000000200001f8230090448800a1448800e9
:1016fc001200370090448000a144800018c0b30051
:10170c006011b800b6fc07000000e00001003400d6
:10171c000044eb000804e000040032006000b80054
:10172c0090448800a1448800040037009044800055
:10173c00a144800090448800a14488009444800017
:10174c00a5448000e0418000f14180000001be0012
:10175c000400be001cfd0700c0418800d141880078
:10176c004f04be000080fa00000006000000fa00e2
:10177c0080002000001188002222ef0030002000a1
:10178c004011880021e2a8002342a8000080fa0042
:10179c00000006000000fa0000000000101180009c
:1017ac00610060000000e000fcff320010118000be
:1017bc00620060000000e000010032002222a9005b
:1017cc0030118000004078000080fa000000060014
:1017dc000200fa00004f7800000000001111800098
:1017ec0000202000008060000000e000fbff3a00b9
:1017fc001e80fb00201188000080fa00000006000b
:10180c000000fa0010118000004078006140600078
:10181c000080fb0000f0a7000000ea000000ea00d6
:10182c004f00de00004078000080fa000000060047
:10183c000000fa00111180000010200000806000f0
:10184c000000e00007003200111180000040200071
:10185c00008060000000e000020032001000200058
:10186c00010037000000eb00004078000080fa0017
:10187c00000006000000fa00101180004800de0095
:10188c00614060000080fb0000f0a7000000ea004f
:10189c000000ea004f00de00004078000080fa00f3
:1018ac00000006000000fa00101180000080fa0011
:1018bc00000006000000fa00d1ff07000080fa00cb
:1018cc00000006000000fa00d9ff07000080fa00b3
:1018dc00000006000000fa00c9ff07000080fa00b3
:1018ec00000006000000fa00e2ff07000080fa008a
:1018fc00000006000000fa000021ef007025200017
:10190c001008880000012800200888007042800020
:10191c000000e00002003a0080cd20002400070007
:10192c008460a9009460a800608c20008040eb00cb
:10193c00014878000080fa00000006000200fa005e
:10194c00000f78009e00780011088800608c200041
:10195c008040eb00014878000080fa00000006008f
:10196c000000fa00100880000080fa000000060059
:10197c000200fa00000f78009e0078000108880031
:10198c00608c20008040eb00014878000080fa0059
:10199c00000006000000fa00000880000080fa0039
:1019ac00000006000000fa000080fa0000000600ab
:1019bc000200fa00000f78009460a9009e007800e5
:1019cc00714288009460a8000080fa0000000600b4
:1019dc000000fa00608c20008040eb000148780089
:1019ec009460a80005e1a8000080fa000000060041
:1019fc000000fa0005e1a9009460a9000080fa003b
:101a0c00000006000200fa00608c2000104f7800e5
:101a1c001e4078000004e00003003200608c2000bf
:101a2c008040eb00014878001e4078000080fa00ee
:101a3c00000006000000fa00708c200010407800b6
:101a4c000080fb000080fa00000006000000fa0095
:101a5c00708c20008040eb00014878000080fa0078
:101a6c00000006000000fa000621ef00f00920003b
:101a7c00600888000000280080088800808c200006
:101a8c008040eb00014878000080fa00000006005e
:101a9c000000fa0021048000000820000080600093
:101aac000000e00009003200908c2000104078000b
:101abc008040e800908c200001487800808c200049
:101acc0011c0b3000148780084e0a9000080fa003e
:101adc00000006000200fa00000f78009e0078005b
:101aec0061088800808c20008040eb000148780061
:101afc000080fa00000006000000fa006008800078
:101b0c000080fa00000006000200fa00000f7800c6
:101b1c009e00780031088800808c20008040eb000b
:101b2c00014878000080fa00000006000000fa006e
:101b3c00300880000080fa00000006000000fa0067
:101b4c00808c20008040eb000148780011e1a80057
:101b5c000080fa00000006000000fa0011e1a90064
:101b6c000080fa00000006000200fa00808c2000c1
:101b7c00104f78001e4078000004e0000300320093
:101b8c00808c20008040eb00014878001e407800db
:101b9c000080fa00000006000000fa00908c200083
:101bac00104078000080fb000080fa000000060066
:101bbc000000fa00908c20008040eb000148780077
:101bcc000080fa00000006000000fa00400e280019
:101bdc0000198800004120001019880000f029002d
:101bec00201988002823ef00f000200080198800bd
:101bfc00101980004200de006f40600054e8b7000e
:101c0c000080fa00000006000000fa002023a80063
:101c1c000080fa00000006000000fa002023a90052
:101c2c000080fa00000006000600fa002007980069
:101c3c0000302000100798000000eb00000f780027
:101c4c000b0037001e00780000004000ae00900032
:101c5c00008040009e009000910078000108780000
:101c6c001e0090000080e800100798001e0fe8008e
:101c7c0054c8bf000080fb009e0f5000f1ff3d00d8
:101c8c001e0078000080fa00000006000000fa0038
:101c9c00001880000080fa00000006000000fa0026
:101cac000019800000407800614060000080fb005b
:101cbc0000f0a7000000ea000000ea004f00de0080
:101ccc00004078000080fa00000006000200fa00d4
:101cdc00000f78009e007800411988000080fa00ff
:101cec00000006000200fa00000f78001e007800c9
:101cfc00f6ff0700c4ff0700c7ff07000000000045
:101d0c00e6ff07000004a2000004e000fcff3a001c
:101d1c00deff07000080fa00000006000000fa0059
:101d2c0085a0a9000080fa00000006000000fa005f
:101d3c008621ef008821ef0060002000500c880005
:101d4c00500c800000407800674060000080fb0071
:101d5c00904288000080fa00000006000000fa00a3
:101d6c000080fa00000006000000fa002104800048
:101d7c0000042000008060000000e000020032003f
:101d8c00f6ff070084c0a9000080fa0000000600de
:101d9c000000fa009042800000407800674060002c
:101dac000080fb0067006000520c800081ff2f0058
:101dbc008100610001007000500c88000080fa0066
:101dcc00000006000000fa00510c800080ff2f007c
:101ddc0000806000500c88000080fa0000000600b3
:101dec000200fa00000f78009e007800310c880089
:101dfc000080fa00000006000200fa00000f7800d4
:101e0c009e007800410c88000080fa00000006005b
:101e1c000000fa00200480004600de0061406000f3
:101e2c000080fb0000f0a7000000ea000000ea00c0
:101e3c004f00de00004078000080fa000000060031
:101e4c000400fa00100798001e0090000000e0004b
:101e5c000a003a00500c80004400de006140600033
:101e6c000080fb0000f0a7000000ea000000ea0080
:101e7c004f00de00004f780001003700000000002a
:101e8c001e4078000080fa00000006000000fa00f6
:101e9c008021ef008221ef0060002000200c8800e0
:101eac00200c800000407800674060000080fb0040
:101ebc00604288000080fa00000006000000fa0072
:101ecc000080fa00000006000000fa0020048000e8
:101edc00640060000000e00002003200f7ff070021
:101eec008440a9000080fa00000006000000fa00ff
:101efc006042800000407800674060000080fb007a
:101f0c0067006000220c800081ff2f0081006100bf
:101f1c0001007000200c88000080fa000000060010
:101f2c000000fa00210c800080ff2f000080600070
:101f3c00200c88000080fa00000006000200fa0065
:101f4c00000f78009e007800010c88000080fa00d9
:101f5c00000006000200fa00000f78009e007800d6
:101f6c00110c88000080fa00000006000000fa0046
:101f7c00200480004200de00614060000080fb0015
:101f8c0000f0a7000000ea000000ea004f00de00ad
:101f9c00004078000080fa00000006000400fa00ff
:101fac00100798001e0090000000e0000a003a00a4
:101fbc00200c80004400de00614060000080fb00cb
:101fcc0000f0a7000000ea000000ea004f00de006d
:101fdc00004f780001003700000000001e40780020
:101fec000080fa00000006000000fa00c422ef0096
:101ffc00cc22ef007001200000168800f03f270073
:10200c00401688006820ef006a20ef00c622ef001f
:10201c00ce22ef000020200060198800113a8000c9
:10202c00f00b20000081600060042000710520008e
:10203c002374200080497800814978008249780017
:10204c0071368000f00f2e00808060000030200080
:10205c0001007000703688005136800000fe2f00a1
:10206c00008060002001b30050368800513680009b
:10207c00f00f2e0080806000003021000100700005
:10208c0050368800103a8000000178000260a000f1
:10209c006004200071052000237420008049780022
:1020ac0081497800824978000080fa00000006001f
:020000040000fa
:1020bc004c0800000200000000000000c6080000f0
:1020cc0002000000000000004e08000002000000aa
:1020dc0000000000c8080000020000000000000022
:1020ec00a6080000200000000000000050080000be
:1020fc000200000002000000ffff00005208000078
:10210c000200000000000000560800005000000013
:10211c00000000003808000014000000020000005d
:10212c000000a00041000000a0419a0099d9400095
:10213c000000700041cdcc00cc3d00000008000038
:10214c0038000000000000005408000002000000ed
:08215c0000000000000000007b
:020000040000fa
:102164000000fa0000002300203a88004827ef000e
:102174007027ef007227ef007427ef001200200091
:1021840080072000a10920003374200080497800d2
:1021940081497800824978000001eb006004200046
:1021a400710520002374200080497800814978005b
:1021b400824978000080fa00000006000000fa005e
:1021c4008bff070015000700e5ff070069fd070006
:1021d4007ffe07002fff0700d6fe070023fe07003f
:1021e400c6fd07000080fa00000006000200fa00a5
:1021f400000f78009e00780081428800ffff3700be
:102204000000fa00608a200080077800e08b20003c
:10221400000188000080fa00000006000000fa00b7
:1022240021058000f0ff28000080600000c0a000ad
:10223400200588000080fa00000006000000fa0073
:08224400deff0700ffff370079
:020000040000fa
:020000040001f9
:0457f8009ff9000015
:020000040000fa
:020000040001f9
:0457fc007f3d0000ed
:00000001FF
